:060000000A128A1110280B
:10000800FE00030EFA000408FB000A08FC007F0843
:10001800FD000A128A15662D0A128A1113280A127F
:100028008A11FF270A128A11BC00B001B101B2017E
:10003800B301B401B501B601B701B801B901830133
:100048000A128A15292E0230B2000030B30004309B
:100058003806031D3028312871280230B700B8014E
:100068007128831203133703031D3B283C2871288A
:1000780034300A128A15C9240A128A110130FF0085
:100088007F0883120313B80702303802031C4D2877
:100098004E2866283308A1003208A0000A30A200C2
:1000A8000030A3000A128A15C8220A128A11831284
:1000B80003132008023EB20021080318013E003E47
:1000C800B3006A280230B2000030B30004303806AA
:1000D800031D6F28702871283128023083120313FA
:1000E800AC004530AB00A930AA00AA0B7928AB0BAD
:1000F8007928AC0B792883120313881E8428852855
:10010800122900300A128A1586210A128A11FF3A2A
:10011800031D8F289028C82837300A128A15C92449
:100128000A128A110130FF007F0883120313B807EF
:1001380002303802031CA128A228BA283308A100DB
:100148003208A0000A30A2000030A3000A128A1563
:10015800C8220A128A11831203132008023EB20031
:1001680021080318013E003EB300BE280230B20049
:100178000030B30004303806031DC328C4280429FE
:100188000230B700B8010429831203133703031D93
:10019800CE28CF28042937300A128A15C9240A1212
:1001A8008A110130FF007F0883120313B807023059
:1001B8003802031CE028E128F9283308A100320896
:1001C800A0000A30A2000030A3000A128A15C82233
:1001D8000A128A11831203132008023EB200210872
:1001E8000318013E003EB300FD280230B200003083
:1001F800B30004303806031D022903290429C42842
:10020800023083120313AC004530AB00A930AA00BA
:10021800AA0B0C29AB0B0C29AC0B0C29831203136A
:10022800081F17291829372900300A128A1586212C
:100238000A128A11FF3A031D222923292429292970
:100248000A128A15A1230A128A1102308312031393
:10025800AC004530AB00A930AA00AA0B3129AB0B82
:100268003129AC0B312983120313081088140811A3
:10027800881D3F294029162A00300A128A1586212E
:100288000A128A11FF3A031D4A294B298329323061
:100298000A128A15C9240A128A110130FF007F0840
:1002A80083120313B80702303802031C5C295D2946
:1002B80075293308A1003208A0000A30A2000030D6
:1002C800A3000A128A15C8220A128A11831203137C
:1002D8002008023EB20021080318013E003EB30088
:1002E80079290230B2000030B30004303806031D0B
:1002F8007E297F29082A0230B700B801082A83120C
:1003080003133708031D89298A29CE290230B6002C
:10031800B701B70A0A128A1599210A128A1183129B
:100328000313A301A30A01300A128A1512250A121F
:100338008A11A0300A128A15EF220A128A11831232
:100348000313A301A30A02300A128A1512250A12FE
:100358008A11AA300A128A15EF220A128A110A3063
:1003680083120313A30001300A128A1512250A12F8
:100378008A11023083120313AC004530AB00A93058
:10038800AA00AA0BC529AB0BC529AC0BC5290A12B3
:100398008A15E02E3703031DD229D329082A3230C3
:1003A8000A128A15C9240A128A110130FF007F082F
:1003B80083120313B80702303802031CE429E52925
:1003C800FD293308A1003208A0000A30A20000303D
:1003D800A3000A128A15C8220A128A11831203136B
:1003E8002008023EB20021080318013E003EB30077
:1003F800012A0230B2000030B30004303806031D71
:10040800062A072A082A7F29023083120313AC0020
:100418004530AB00A930AA00AA0B102AAB0B102A52
:10042800AC0B102A83120313081E1B2A1C2AA92AA4
:1004380000300A128A1586210A128A11FF3A031D12
:10044800262A272A5F2A35300A128A15C9240A1251
:100458008A110130FF007F0883120313B8070230A6
:100468003802031C382A392A512A3308A1003208D5
:10047800A0000A30A2000030A3000A128A15C82280
:100488000A128A11831203132008023EB2002108BF
:100498000318013E003EB300552A0230B200003076
:1004A800B30004303806031D5A2A5B2A9B2A0230FF
:1004B800B700B8019B2A831203133703031D652A6B
:1004C800662A9B2A35300A128A15C9240A128A110B
:1004D8000130FF007F0883120313B8070230380287
:1004E800031C772A782A902A3308A1003208A00032
:1004F8000A30A2000030A3000A128A15C8220A1284
:100508008A11831203132008023EB200210803183F
:10051800013E003EB300942A0230B2000030B3001E
:1005280004303806031D992A9A2A9B2A5B2A02302E
:1005380083120313AC004530AB00A930AA00AA0B04
:10054800A32AAB0BA32AAC0BA32A83120313881E7E
:10055800AE2AAF2A3C2B00300A128A1586210A12CD
:100568008A11FF3A031DB92ABA2AF22A38300A1228
:100578008A15C9240A128A110130FF007F088312E4
:100588000313B80702303802031CCB2ACC2AE42A0A
:100598003308A1003208A0000A30A2000030A300EE
:1005A8000A128A15C8220A128A1183120313200814
:1005B800023EB20021080318013E003EB300E82ABB
:1005C8000230B2000030B30004303806031DED2AB3
:1005D800EE2A2E2B0230B700B8012E2B83120313FC
:1005E8003703031DF82AF92A2E2B38300A128A15E8
:1005F800C9240A128A110130FF007F0883120313ED
:10060800B80702303802031C0A2B0B2B232B3308A4
:10061800A1003208A0000A30A2000030A3000A128C
:100628008A15C8220A128A11831203132008023E6F
:10063800B20021080318013E003EB300272B023008
:10064800B2000030B30004303806031D2C2B2D2BCC
:100658002E2BEE2A023083120313AC004530AB0078
:10066800A930AA00AA0B362BAB0B362BAC0B362BBA
:1006780083120313081F412B422BCF2B00300A1281
:100688008A1586210A128A11FF3A031D4C2B4D2B1D
:10069800852B30300A128A15C9240A128A110130B2
:1006A800FF007F0883120313B80702303802031CC7
:1006B8005E2B5F2B772B3308A1003208A0000A308D
:1006C800A2000030A3000A128A15C8220A128A1151
:1006D800831203132008023EB20021080318013ECA
:1006E800003EB3007B2B0230B2000030B300043070
:1006F8003806031D802B812BC12B0230B700B801AF
:10070800C12B831203133703031D8B2B8C2BC12B97
:1007180030300A128A15C9240A128A110130FF00E2
:100728007F0883120313B80702303802031C9D2B7D
:100738009E2BB62B3308A1003208A0000A30A20075
:100748000030A3000A128A15C8220A128A118312DD
:1007580003132008023EB20021080318013E003EA0
:10076800B300BA2B0230B2000030B30004303806B0
:10077800031DBF2BC02BC12B812B02308312031307
:10078800AC004530AB00A930AA00AA0BC92BAB0BB3
:10079800C92BAC0BC92B831203130810881008153A
:1007A800881DD72BD82B652C00300A128A15862174
:1007B8000A128A11FF3A031DE22BE32B1B2C33305C
:1007C8000A128A15C9240A128A110130FF007F080B
:1007D80083120313B80702303802031CF42BF52BDD
:1007E8000D2C3308A1003208A0000A30A200003006
:1007F800A3000A128A15C8220A128A118312031347
:100808002008023EB20021080318013E003EB30052
:10081800112C0230B2000030B30004303806031D3A
:10082800162C172C572C0230B700B801572C8312FE
:1008380003133703031D212C222C572C33300A12A3
:100848008A15C9240A128A110130FF007F08831211
:100858000313B80702303802031C332C342C4C2CF9
:100868003308A1003208A0000A30A2000030A3001B
:100878000A128A15C8220A128A1183120313200841
:10088800023EB20021080318013E003EB300502C7E
:100898000230B2000030B30004303806031D552C76
:1008A800562C572C172C023083120313AC004530FA
:1008B800AB00A930AA00AA0B5F2CAB0B5F2CAC0BCA
:1008C8005F2C83120313081E6A2C6B2CF82C003043
:1008D8000A128A1586210A128A11FF3A031D752CFD
:1008E800762CAE2C36300A128A15C9240A128A11BF
:1008F8000130FF007F0883120313B8070230380263
:10090800031C872C882CA02C3308A1003208A000D7
:100918000A30A2000030A3000A128A15C8220A125F
:100928008A11831203132008023EB200210803181B
:10093800013E003EB300A42C0230B2000030B300E8
:1009480004303806031DA92CAA2CEA2C0230B70063
:10095800B801EA2C831203133703031DB42CB52CFA
:10096800EA2C36300A128A15C9240A128A11013073
:10097800FF007F0883120313B80702303802031CF4
:10098800C62CC72CDF2C3308A1003208A0000A307F
:10099800A2000030A3000A128A15C8220A128A117E
:1009A800831203132008023EB20021080318013EF7
:1009B800003EB300E32C0230B2000030B300043034
:1009C8003806031DE82CE92CEA2CAA2C02308312E5
:1009D8000313AC004530AB00A930AA00AA0BF22CD7
:1009E800AB0BF22CAC0BF22C83120313881EFD2CDC
:1009F800FE2C8B2D00300A128A1586210A128A11C4
:100A0800FF3A031D082D092D412D39300A128A1588
:100A1800C9240A128A110130FF007F0883120313C8
:100A2800B80702303802031C1A2D1B2D332D33084A
:100A3800A1003208A0000A30A2000030A3000A1268
:100A48008A15C8220A128A11831203132008023E4B
:100A5800B20021080318013E003EB300372D0230D2
:100A6800B2000030B30004303806031D3C2D3D2D84
:100A78007D2D0230B700B8017D2D83120313370393
:100A8800031D472D482D7D2D39300A128A15C9249A
:100A98000A128A110130FF007F0883120313B80776
:100AA80002303802031C592D5A2D722D3308A1002B
:100AB8003208A0000A30A2000030A3000A128A15EA
:100AC800C8220A128A11831203132008023EB200B8
:100AD80021080318013E003EB300762D0230B20013
:100AE8000030B30004303806031D7B2D7C2D7D2D8E
:100AF8003D2D023083120313AC004530AB00A93002
:100B0800AA00AA0B852DAB0B852DAC0B852D831266
:100B18000313081F902D912DB82F02303706031D9F
:100B2800962D972DAA2F00300A128A1586210A12AF
:100B38008A11FF3A031DA12DA22DF42D64308312D2
:100B48000313A0000030A1003308A3003208A2005C
:100B58000A128A11B9270A128A118312031320086C
:100B6800A70000300A128A1571230A128A1164300C
:100B780083120313A0000030A1003308A300320839
:100B8800A2000A128A1544240A128A118312031336
:100B98002008A70001300A128A1571230A128A1147
:100BA8000A128A1599210A128A1105308312031331
:100BB800A30001300A128A1512250A128A117F3001
:100BC8000A128A15EF220A128A110A128A15D123EB
:100BD8000A128A110A128A15A1230A128A11AA2F47
:100BE800831203133603031DFA2DFB2DB02E00309C
:100BF8000A128A1586210A128A1183120313AA007F
:100C0800AB012A08B0002B08B1006430A000003006
:100C1800A1003108A3003008A2000A128A15C822D0
:100C28000A128A11831203132108B1002008B000A8
:100C380001300A128A1586210A128A1183120313B7
:100C4800AA00AB012A08B0070318B10A2B08B1079C
:100C580033083106031D322E32083006031D352EA7
:100C6800362E5F2E0A128A1599210A128A1105302A
:100C780083120313A30001300A128A1512250A12DF
:100C88008A1123300A128A15EF220A128A110A12CF
:100C98008A15D1230A128A1183120313A70104307B
:100CA8000A128A1571230A128A110A128A15A123B7
:100CB8000A128A11AA2F0A128A1599210A128A1170
:100CC800053083120313A30001300A128A15122576
:100CD8000A128A1132300A128A15EF220A128A1170
:100CE8000A128A15D1230A128A110130FF007F08DF
:100CF80083120313B4073408A70004300A128A15B4
:100D080071230A128A1104300A128A1586210A12DE
:100D18008A1183120313AA0004302A02031C952E99
:100D2800962E592EA70104300A128A1571230A1229
:100D38008A11033083120313A70002300A128A159E
:100D480071230A128A118312031310140A128A15C6
:100D580044230A128A11AA2F02303606031DB52E23
:100D6800B62EAA2F3C03031DBA2EBB2E502F0030DF
:100D78000A128A1586210A128A1183120313AA00FD
:100D8800AB012A08B0002B08B1006430A000003085
:100D9800A1003108A3003008A2000A128A15C8224F
:100DA8000A128A11831203132108B1002008B00027
:100DB80001300A128A1586210A128A118312031336
:100DC800AA00AB012A08B0070318B10A2B08B1071B
:100DD80033083106031DF22E32083006031DF52EA6
:100DE800F62E072F0A30A30002300A128A151225A0
:100DF8000A128A11023083120313BC00B701B70A22
:100E08000A128A15662F0A128A1599210A128A115E
:100E1800053083120313A30001300A128A15122524
:100E28000A128A1132300A128A15EF220A128A111E
:100E38000A128A15D1230A128A110130FF007F088D
:100E480083120313B4073408A70004300A128A1562
:100E580071230A128A1104300A128A1586210A128D
:100E68008A1183120313AA0004302A02031C3D2F9F
:100E78003E2F592EA70104300A128A1571230A122F
:100E88008A11033083120313A70002300A128A154D
:100E980071230A128A11A72E02303C06031D552F12
:100EA800562FAA2F6430A0000030A1003308A300F9
:100EB8003208A2000A128A11B9270A128A1183126B
:100EC80003132008A70000300A128A1571230A129A
:100ED8008A11643083120313A0000030A100330884
:100EE800A3003208A2000A128A1544240A128A11A1
:100EF800831203132008A70001300A128A157123F0
:100F08000A128A110A128A1599210A128A110530C1
:100F180083120313A30001300A128A1512250A123C
:100F28008A1141300A128A15EF220A128A110A120E
:100F38008A15D1230A128A1183120313A7010430D8
:100F48000A128A1571230A128A11592E0230831245
:100F58000313AC004530AB00A930AA00AA0BB22F8E
:100F6800AB0BB22FAC0BB22F080083120313A401F2
:100F7800A501200821040319C22FC32FFA2FA601A7
:100F8800A60AD12F01300310A00DA10DFF3E031DAD
:100F9800C72F0130FF007F08A607A11FD42FD52F28
:100FA800C62F01300310A40DA50DFF3E031DD62F3B
:100FB80021082302031DE22F20082202031CE52F2B
:100FC800E62FED2F2008A2022108031CA303A30289
:100FD800241401300310A10CA00CFF3E031DEE2FBA
:100FE8000130A602031DF92FFA2FD52F2508A100DD
:100FF8002408A0000800013408308A000408840A84
:101008008207003431343A3445346E3474346534EC
:1010180072342034503461347334733477346F3419
:101028007234643400344C346F3463346B34653454
:1010380064343A34343420344D3469346E3475347D
:1010480074346534733400344134433443344534A0
:101058005334533420344734523441344E345434A6
:101068004534443400345034613473347334203498
:1010780049346E3463346F34723472346534633493
:10108800743400345034613473347334203443344A
:10109800683461346E34673465346434003434340D
:1010A80020346434693467346934743420347034D7
:1010B80061347334733400344634693472347334AD
:1010C80074342034543469346D3465343F34003416
:1010D8004D346134783420343534203474347234E7
:1010E80069346534733400342A343A344D34613405
:1010F80069346E3420346D3465346E34753400349C
:10110800573465346C3463346F346D34653420344B
:101118003A34293400345334653474342034503428
:1011280061347334733421343A34003432343A3409
:101138004E34653477342034503461347334733426
:1011480000344F346C346434203450346134733494
:1011580073343A3400344E34653477342034703480
:0A1168006134733473343A340034F8
:1012CC00F0007008831203178D00831603178C131C
:1012DC000C14831203170C08F1007108080000307D
:1012EC000A128A15AD210A128A1501300A128A15C2
:1012FC00AD210A128A151B30F300F30B8329080069
:10130C0083120313A0002008831203178D00831689
:10131C0003178C130C14831203170C08831203137A
:10132C00A1002108080000300A128A15D9210A12DE
:10133C008A1501300A128A15D9210A128A151A3017
:10134C0083120313A300A30BA92900000800F200C9
:10135C0083120313061272080A128A1511220A123A
:10136C008A158312031386165330F100F10BBC2936
:10137C00831203138612080083120313A200901029
:10138C00101290122208A000A10120088E00210842
:10139C008F00831603130C14831203130C108B177A
:1013AC000B171010080083120313A2000612220858
:1013BC000A128A15F1210A128A1583120313861652
:1013CC00523083120313A100A10BEA2900008312EF
:1013DC0003138612080083120313A000201CF729A4
:1013EC00F829FA290614FB290610A01CFE29FF294E
:1013FC00012A8614022A8610201D052A062A082A8C
:10140C000615092A0611A01D0C2A0D2A0F2A86156D
:10141C00102A86110800F000701C152A162A1A2AA8
:10142C008312031306141D2A831203130610F01CD7
:10143C00202A212A232A8614242A8610701D272A62
:10144C00282A2A2A06152B2A0611F01D2E2A2F2AA5
:10145C00312A8615322A86110800F500F601F701AB
:10146C004A2A7608750784000A128A1500200A1287
:10147C008A150A128A1509240A128A150130F607F0
:10148C000318F70A0030F7077608750784000A126C
:10149C008A1500200A128A15003A031D562A572A6B
:1014AC00372A080083120313A40000300A128A158D
:1014BC00D9210A128A15831203132403031D672AE8
:1014CC00682A6F2A0E300A128A15D9210A128A1537
:1014DC00752A0C300A128A15D9210A128A150B307A
:1014EC0083120313A300A30B792A000008008312B4
:1014FC000313A40000300A128A15D9210A128A1586
:10150C00831203132403031D8C2A8D2A942A0C3076
:10151C000A128A15D9210A128A159A2A08300A1237
:10152C008A15D9210A128A150B3083120313A300D2
:10153C00A30B9E2A00000800F10000308B1B013029
:10154C00F200831603178C18AC2AAD2AA72A71084F
:10155C00831203178D0070088C00831603178C13ED
:10156C000C158B1355308D00AA308D008C1472180D
:10157C00C02AC22A8B17C32A8B13831603170C118C
:10158C008C10080083120313A401A501201CCF2A80
:10159C00D02AD62A2208A4070318A50A2308A507CF
:1015AC0001300310A20DA30DFF3E031DD72A0130FD
:1015BC000310A10CA00CFF3E031DDE2A2008210401
:1015CC00031DE92AEA2ACC2A2508A1002408A00038
:1015DC00080083120313A700A501A6010A2B2508F6
:1015EC00270784000A128A1500200A128A150A128B
:1015FC008A15C9240A128A15013083120313A50710
:10160C000318A60A0030A6072508270784000A122B
:10161C008A1500200A128A15003A031D162B172B67
:10162C00F52A080083120313BC01BC0AB701B801E8
:10163C00B6010A128A1575210A128A15F301F30AEA
:10164C0001300A128A1580240A128A1501300A12F6
:10165C008A1533220A128A15F301F30A02300A1290
:10166C008A1580240A128A1595300A128A1533229B
:10167C000A128A1583120313101008000A128A1515
:10168C0099210A128A1583120313A301A30A0130AC
:10169C000A128A1512250A128A1567300A128A153F
:1016AC00EF220A128A1583120313A301A30A023034
:1016BC000A128A1512250A128A1512300A128A1574
:1016CC00EF220A128A15033083120313B70003307A
:1016DC00B6001014080083120313A80000308B1BF3
:1016EC000130A900831603178C187D2B7E2B782BC9
:1016FC00831203132808831203178D00831203131C
:10170C002708831203178C00831603178C130C15F0
:10171C008B1355308D00AA308D008C14831203135B
:10172C002918992B9B2B8B179C2B8B138316031728
:10173C000C118C10080083120313BC01BC0AB701F6
:10174C00B801B6010A128A1599210A128A15831258
:10175C000313A301A30A01300A128A1512250A12D7
:10176C008A1501300A128A15EF220A128A15831281
:10177C000313A301A30A02300A128A1512250A12B6
:10178C008A1595300A128A15EF220A128A158312CD
:10179C0003131010080083120313A80100300A125F
:1017AC008A157D220A128A15023083120313A700B0
:1017BC004530A600A930A500A50BE22BA60BE22B09
:1017CC00A70BE22B01300A128A157D220A128A1508
:1017DC00023083120313A7004530A600A930A500E0
:1017EC00A50BF62BA60BF62BA70BF62B0130FF0047
:1017FC007F0883120313A80704302802031C072C4C
:10180C00082CD42B0800F40074080F39F20074086B
:10181C00F039F3008312031306167308F100043039
:10182C000310F10CFF3E031D162C71080A128A15C9
:10183C0011220A128A158312031386165330F100F3
:10184C00F10B262C8312031386125330F100F10B8B
:10185C002D2C72080A128A1511220A128A1583126B
:10186C00031386165330F100F10B3A2C8312031339
:10187C0086125330F100F10B412C08008312031334
:10188C002008210403194B2C4C2C7B2CA401A40AFA
:10189C005A2C01300310A00DA10DFF3E031D502C3E
:1018AC000130FF007F08A407A11F5D2C5E2C4F2C7C
:1018BC0021082302031D642C20082202031C672C20
:1018CC00682C6E2C2008A2022108031CA303A3027F
:1018DC0001300310A10CA00CFF3E031D6F2C013036
:1018EC00A402031D7A2C7B2C5E2C2308A100220859
:1018FC00A0000800F5007503031D852C862CA22C76
:10190C0073087F3EF8007808F40004300310F40CE0
:10191C00FF3E031D8C2C7408F60078080F39F70075
:10192C0076080A128A15AD210A128A1577080A124E
:10193C008A15AD210A128A1502307506031DA72CD3
:10194C00A82CC42C7308BF3EF8007808F4000430AF
:10195C000310F40CFF3E031DAE2C7408F60078083F
:10196C000F39F70076080A128A15AD210A128A156A
:10197C0077080A128A15AD210A128A150C30F40068
:10198C00F40BC62C080083120313A40024080F398F
:10199C00A2002408F039A30006162308A100043085
:1019AC000310A10CFF3E031DD62C21080A128A1528
:1019BC00F1210A128A1583120313861652308312F0
:1019CC000313A100A10BE82C000083120313861251
:1019DC00523083120313A100A10BF22C00008312CE
:1019EC00031322080A128A15F1210A128A1583128E
:1019FC0003138616523083120313A100A10B042D7E
:101A0C000000831203138612523083120313A100B9
:101A1C00A10B0E2D0000080083120313A500250353
:101A2C00031D192D1A2D382D23087F3EA8002808D8
:101A3C00A40004300310A40CFF3E031D202D240829
:101A4C00A60028080F39A70026080A128A15D921E2
:101A5C000A128A158312031327080A128A15D92130
:101A6C000A128A150230831203132506031D3F2D1B
:101A7C00402D5E2D2308BF3EA8002808A40004308A
:101A8C000310A40CFF3E031D462D2408A6002808B5
:101A9C000F39A70026080A128A15D9210A128A15AD
:101AAC008312031327080A128A15D9210A128A15E0
:101ABC000B3083120313A400A40B622D000008004A
:101ACC00831203130C1C6B2D6C2DB32D3B088F0054
:101ADC003A088E000130FF007F08B9071430390630
:101AEC00031D792D7A2DB22D03300A128A15662129
:101AFC000A128A1583120313B5000130FF007F0808
:101B0C00B5073508F00003300A128A15A2220A1212
:101B1C008A1503300A128A1566210A128A15F900F1
:101B2C00F0307902031C9B2D9C2DAF2DF00103305E
:101B3C000A128A15A2220A128A15F00102300A1220
:101B4C008A15A2220A128A150A128A1518230A1259
:101B5C008A1583120313B9010C107D08FF007C0851
:101B6C008A007B0884007A0E8300FE0E7E0E09002C
:101B7C008316031386018612061200300A128A1588
:101B8C00F1210A128A15273083120313A400F430B2
:101B9C00A300A30BCF2DA40BCF2D0000523083122A
:101BAC000313A300A30BD82D000003300A128A15CF
:101BBC00D9210A128A15073083120313A4007C3032
:101BCC00A300A30BE72DA40BE72D000003300A1292
:101BDC008A15D9210A128A15313083120313A300F6
:101BEC00A30BF62D03300A128A15D9210A128A1575
:101BFC0002300A128A15D9210A128A1502300A12E9
:101C0C008A15D9210A128A1508300A128A15D92187
:101C1C000A128A1500300A128A15D9210A128A155D
:101C2C000C300A128A15D9210A128A1500300A12B0
:101C3C008A15D9210A128A1506300A128A15D92159
:101C4C000A128A150800B03083120313BA003C3014
:101C5C00BB003A080A128A15C2210A128A15831689
:101C6C0003130814881408158815783088000A1294
:101C7C008A15BE250A128A1501300A128A155822B5
:101C8C000A128A1500300A128A1586210A128A1540
:101C9C00FF3A031D522E532EB82E83120313A701A5
:101CAC0003300A128A1571230A128A158312031340
:101CBC00A70104300A128A1571230A128A150A1216
:101CCC008A1599210A128A1583120313A301A30AF8
:101CDC0001300A128A1512250A128A155B300A1273
:101CEC008A15EF220A128A150B3083120313AF00E8
:101CFC002630AE005D30AD00AD0B822EAE0B822EC9
:101D0C00AF0B822E0A128A1599210A128A15831298
:101D1C000313A301A30A01300A128A1512250A1211
:101D2C008A158A300A128A15EF220A128A15831232
:101D3C000313A301A30A02300A128A1512250A12F0
:101D4C008A154E300A128A15EF220A128A150B30A8
:101D5C0083120313A30001300A128A1512250A12EA
:101D6C008A15CE2E02300A128A1586210A128A157D
:101D7C00033A031DC22EC32EC92E0A128A15442300
:101D8C000A128A15CE2E0A128A15A1230A128A1556
:101D9C0004300A128A1586210A128A15831203133B
:101DAC00B4000A128A15E0260A128A15CE2E0A12DF
:101DBC008A11102883120313081488100811881D27
:101DCC00E82EE92EBD2F00300A128A1586210A1240
:101DDC008A15FF3A031DF32EF42E2C2F31300A12E4
:101DEC008A15C9240A128A150130FF007F08831254
:101DFC000313B80702303802031C052F062F1E2FC1
:101E0C003308A1003208A0000A30A2000030A30061
:101E1C000A128A15C8220A128A1583120313200883
:101E2C00013EB20021080318013E003EB300222FF0
:101E3C000130B2000030B30004303806031D272FE8
:101E4C00282FAF2F0230B700B801AF2F8312031326
:101E5C003708031D322F332F752FB601B60AB70181
:101E6C00B70A0A128A1599210A128A1583120313CA
:101E7C00A301A30A01300A128A1512250A128A1527
:101E8C00A4300A128A15EF220A128A158312031340
:101E9C00A301A30A02300A128A1512250A128A1506
:101EAC0073300A128A15EF220A128A150630831231
:101EBC000313A30001300A128A1512250A128A157F
:101ECC00023083120313AC004530AB00A930AA00DA
:101EDC00AA0B6E2FAB0B6E2FAC0B6E2FE02E3703B5
:101EEC00031D792F7A2FAF2F31300A128A15C9248E
:101EFC000A128A150130FF007F0883120313B807FA
:101F0C0002303802031C8B2F8C2FA42F3308A10016
:101F1C003208A0000A30A2000030A3000A128A1571
:101F2C00C8220A128A15831203132008013EB2003C
:101F3C0021080318013E003EB300A82F0130B20067
:101F4C000030B30004303806031DAD2FAE2FAF2F79
:101F5C00282F023083120313AC004530AB00A9309C
:101F6C00AA00AA0BB72FAB0BB72FAC0BB72F831252
:101F7C000313081EC22FC52F0A128A117F280030A6
:101F8C000A128A1586210A128A15FF3A031DCF2FD1
:101F9C00D22F0A128A11352834300A128A15C92414
:101FAC000A128A150130FF007F0883120313B80749
:101FBC0002303802031CE32FE62F0A128A1127285D
:101FCC003308A1003208A0000A30A2000030A300A0
:101FDC000A128A15C8220A128A15831203132008C2
:101FEC00023EB20021080318013E003EB3000A1263
:041FFC008A112B28F3
:02400E00713E01
:00000001FF
