:060000000A128A110E280D
:10000800FE00030EF0000A08F1007F08F2000A1251
:100018008A11042F0A128A1111280A128A11AB2791
:100028000A128A11B000AB01AC01AD01FA018301DB
:100038000A128A111F28B03083120313AE003C3015
:10004800AF002E080A128A115F270A128A11831636
:100058000313081488140815881583120313A901BB
:10006800AA010A128A119C240A128A1101300A1262
:100078008A1141270A128A1100300A128A119C2714
:100088000A128A11FF3A031D4A284B2896280A1299
:100098008A118B270A128A11F601F60A01300A1210
:1000A8008A11FD240A128A114A300A128A119426EA
:1000B8000A128A110B3083120313A6002630A500FA
:1000C8005D30A400A40B6628A50B6628A60B66283D
:1000D8000A128A118B270A128A11F601F60A0130D0
:1000E8000A128A11FD240A128A116D300A128A1125
:1000F80094260A128A11F601F60A02300A128A11A7
:10010800FD240A128A113D300A128A1194260A1215
:100118008A110B30F60001300A128A11FD240A12E6
:100128008A119B280A128A116B260A128A118312D5
:100138000313081CA028A1286F2900300A128A116D
:100148009C270A128A11FF3A031DAB28AC28E42821
:1001580031300A128A1192250A128A110130FF00E1
:100168007F0883120313AD0702302D02031CBD283C
:10017800BE28D6282A08F4002908F3000A30F5001A
:100188000030F6000A128A11BD260A128A11730875
:10019800013E83120313A90074080318013E003EB0
:1001A800AA00DA280130A9000030AA0004302D0680
:1001B800031DDF28E02861290230AC00AD01612968
:1001C800831203132C08031DEA28EB282729AB0107
:1001D800AB0AAC01AC0A0A128A118B270A128A11DF
:1001E800F601F60A01300A128A11FD240A128A1150
:1001F80087300A128A1194260A128A11F601F60A21
:1002080002300A128A11FD240A128A1156300A1283
:100218008A1194260A128A110630F60001300A1251
:100228008A11FD240A128A11023083120313A600D0
:100238004530A500A930A400A40B2029A50B20292E
:10024800A60B20299B282C03031D2B292C29612967
:1002580031300A128A1192250A128A110130FF00E0
:100268007F0883120313AD0702302D02031C3D29BA
:100278003E2956292A08F4002908F3000A30F50017
:100288000030F6000A128A11BD260A128A11730874
:10029800013E83120313A90074080318013E003EAF
:1002A800AA005A290130A9000030AA0004302D06FE
:1002B800031D5F2960296129E02802308312031396
:1002C800A6004530A500A930A400A40B6929A50BF8
:1002D8006929A60B692983120313881C74297529B7
:1002E800432A00300A128A119C270A128A11FF3AFF
:1002F800031D7F298029B82932300A128A119225D4
:100308000A128A110130FF007F0883120313AD0718
:1003180002302D02031C91299229AA292A08F400E7
:100328002908F3000A30F5000030F6000A128A1195
:10033800BD260A128A117308023E83120313A9000C
:1003480074080318013E003EAA00AE290230A90035
:100358000030AA0004302D06031DB329B429352A1C
:100368000230AC00AD01352A831203132C08031D9B
:10037800BE29BF29FB290230AB00AC01AC0A0A1226
:100388008A118B270A128A11F601F60A01300A121D
:100398008A11FD240A128A1183300A128A119426BE
:1003A8000A128A11F601F60A02300A128A11FD248D
:1003B8000A128A118D300A128A1194260A128A1199
:1003C8000A30F60001300A128A11FD240A128A1135
:1003D800023083120313A6004530A500A930A400FB
:1003E800A40BF429A50BF429A60BF4299B282C03AC
:1003F800031DFF29002A352A32300A128A11922554
:100408000A128A110130FF007F0883120313AD0717
:1004180002302D02031C112A122A2A2A2A08F40063
:100428002908F3000A30F5000030F6000A128A1194
:10043800BD260A128A117308023E83120313A9000B
:1004480074080318013E003EAA002E2A0230A900B3
:100458000030AA0004302D06031D332A342A352A19
:10046800B429023083120313A6004530A500A93031
:10047800A400A40B3D2AA50B3D2AA60B3D2A8312F6
:100488000313081D482A492A682A00300A128A11CB
:100498009C270A128A11FF3A031D532A542A552A07
:1004A8005A2A0A128A116B260A128A1102308312FA
:1004B8000313A6004530A500A930A400A40B622AA6
:1004C800A50B622AA60B622A83120313881D6D2AC4
:1004D8006E2A9B2802302C06031D732A742A1829B9
:1004E80000300A128A119C270A128A11FF3A031D4A
:1004F8007E2A7F2ACF2A6430F3000030F40083126A
:1005080003132A08F6002908F5000A128A114E2555
:100518000A128A11730883120313A00000300A120A
:100528008A113B260A128A116430F3000030F40065
:10053800831203132A08F6002908F5000A128A1103
:10054800CD250A128A11730883120313A000013003
:100558000A128A113B260A128A110A128A118B275B
:100568000A128A110530F60001300A128A11FD2498
:100578000A128A1162300A128A1194260A128A1102
:100588000A128A1107260A128A110A128A116B2680
:100598000A128A111829831203132B03031DD52A63
:1005A800D62A432B00300A128A119C270A128A1174
:1005B80083120313A400A5012408A7002508A80096
:1005C8006430F3000030F4002808F6002708F5002E
:1005D8000A128A11BD260A128A117408831203139B
:1005E800A8007308A70001300A128A119C270A1272
:1005F8008A1183120313A400A5012408A70703186E
:10060800A80A2508A8072A082806031D0D2B29086B
:100618002706031D102B112B2F2B0A128A118B274B
:100628000A128A110530F60001300A128A11FD24D7
:100638000A128A1112300A128A1194260A128A1191
:100648000A128A1107260A128A110A128A116B26BF
:100658000A128A1118290A128A118B270A128A117A
:100668000530F60001300A128A11FD240A128A1197
:1006780021300A128A1194260A128A11242B023078
:100688002B06031D482B492BF62B3003031D4D2B3E
:100698004E2BAC2B00300A128A119C270A128A11A1
:1006A80083120313A400A5012408A7002508A800A5
:1006B8006430F3000030F4002808F6002708F5003D
:1006C8000A128A11BD260A128A11740883120313AA
:1006D800A8007308A70001300A128A119C270A1281
:1006E8008A1183120313A400A5012408A70703187D
:1006F800A80A2508A8072A082806031D852B290803
:100708002706031D882B892B982B0A30F600023008
:100718000A128A11FD240A128A1102308312031365
:10072800B000AC01AC0A18290A128A118B270A12E8
:100738008A110530F60001300A128A11FD240A12C6
:100748008A1121300A128A1194260A128A11242B3E
:1007580002303006031DB12BB22BF62B6430F300A8
:100768000030F4002A08F6002908F5000A128A1158
:100778004E250A128A11730883120313A000003051
:100788000A128A113B260A128A116430F3000030DB
:10079800F400831203132A08F6002908F5000A1248
:1007A8008A11CD250A128A11730883120313A00037
:1007B80001300A128A113B260A128A110A128A117A
:1007C8008B270A128A110530F60001300A128A11A5
:1007D800FD240A128A1130300A128A1194260A124C
:0C07E8008A11C42A18290A128A110E284E
:1008000004308A000408840A8207003431343A3400
:1008100045346E3474346534723420345034613469
:100820007334733477346F34723464340034413445
:1008300043344334453453345334203447345234EE
:1008400041344E34543445344434003450346134EB
:1008500073347334203449346E3463346F347234F7
:100860007234653463347434003450346134733416
:10087000733420344334683461346E3467346534FF
:100880006434003434342034643469346734693473
:100890007434203470346134733473340034463427
:1008A00069347234733474342034543469346D349C
:1008B00065343F3400342A343A344D346134693479
:1008C0006E3420346D3465346E34753400345734EE
:1008D00065346C3463346F346D34653420343A34A9
:1008E0002934003453346534743420345034613442
:1008F0007334733421343A34003432343A344E345D
:1009000065347734203450346134733473340034B4
:100910004F346C3464342034503461347334733461
:100920003A3400344E3465347734203470346134D2
:10093000733473343A3400348316031386018612F9
:10094000061200300A128A11E2260A128A11273092
:10095000F700F530F600F60BAB2CF70BAB2C533051
:10096000F600F60BB12C03300A128A1176270A1210
:100970008A110730F7007D30F600F60BBD2CF70B1F
:10098000BD2C03300A128A1176270A128A113130DF
:10099000F600F60BC92CCC2C03300A128A117627EC
:1009A0000A128A1102300A128A1176270A128A1153
:1009B00002300A128A1176270A128A1108300A12A6
:1009C0008A1176270A128A1100300A128A117627B4
:1009D0000A128A110C300A128A1176270A128A1119
:1009E00000300A128A1176270A128A1106300A127A
:1009F0008A1176270A128A11080083120313A000B5
:100A00002003031D042D052D232D76087F3EA30012
:100A10002308F70004300310F70CFF3E031D0B2DD5
:100A20007708A10023080F39A20021080A128A11B1
:100A300076270A128A118312031322080A128A11D6
:100A400076270A128A110230831203132006031D2F
:100A50002A2D2B2D492D7608BF3EA3002308F70031
:100A600004300310F70CFF3E031D312D7708A10061
:100A700023080F39A20021080A128A1176270A12C8
:100A80008A118312031322080A128A1176270A1286
:100A90008A110C30F700F70B4B2D0800F701F80115
:100AA000730874040319552D562D8D2DF901F90A7B
:100AB000642D01300310F30DF40DFF3E031D5A2D7C
:100AC0000130FF007F08F907F41F672D682D592DAD
:100AD00001300310F70DF80DFF3E031D692D74085A
:100AE0007602031D752D73087502031C782D792D70
:100AF000802D7308F5027408031CF603F6027714C0
:100B000001300310F40CF30CFF3E031D812D013066
:100B1000F902031D8C2D8D2D682D7808F4007708BF
:100B2000F3000800F70077080F39F5007708F0396F
:100B3000F6008312031306167608F400043003103F
:100B4000F40CFF3E031D9F2D74080A128A11E22641
:100B50000A128A118312031386165330F400F40B21
:100B6000AF2D8312031386125330F400F40BB62D0D
:100B700075080A128A11E2260A128A1183120313D7
:100B800086165330F400F40BC32D83120313861220
:100B90005330F400F40BCA2D0800730874040319D1
:100BA000D22DD32D022EF701F70AE12D01300310CB
:100BB000F30DF40DFF3E031DD72D0130FF007F081C
:100BC000F707F41FE42DE52DD62D74087602031DDA
:100BD000EB2D73087502031CEE2DEF2DF52D730818
:100BE000F5027408031CF603F60201300310F40C3E
:100BF000F30CFF3E031DF62D0130F702031D012EFD
:100C0000022EE52D7608F4007508F3000800F801BF
:100C100000300A128A1123270A128A110230831225
:100C20000313A2004530A100A930A000A00B162E8E
:100C3000A10B162EA20B162E01300A128A112327A1
:100C40000A128A11023083120313A2004530A10058
:100C5000A930A000A00B2A2EA10B2A2EA20B2A2E0F
:100C60000130FF007F08F80704307802031C392E9A
:100C70003A2E082E080083120313A10000308B1BAC
:100C80000130A200831603178C18472E482E422EDF
:100C9000831203132108831203178D008312031399
:100CA0002008831203178C00831603178C130C156E
:100CB0008B1355308D00AA308D008C1483120313D2
:100CC0002218632E652E8B17662E8B13831603173F
:100CD0000C118C10080083120313B001B00AAC0190
:100CE000AD01AB010A128A118B270A128A11F60193
:100CF000F60A01300A128A11FD240A128A11013003
:100D00000A128A1194260A128A11F601F60A023092
:100D10000A128A11FD240A128A1178300A128A11E5
:100D200094260A128A11080083120313A200A0015C
:100D3000A101AF2E2008220784000A128A11002484
:100D40000A128A110A128A1192250A128A11013096
:100D500083120313A0070318A10A0030A10720087B
:100D6000220784000A128A1100240A128A11003A0A
:100D7000031DBB2EBC2E9A2E0800F701F801731C30
:100D8000C22EC32EC92E7508F7070318F80A760875
:100D9000F80701300310F50DF60DFF3E031DCA2EB6
:100DA00001300310F40CF30CFF3E031DD12E730829
:100DB0007404031DDC2EDD2EBF2E7808F4007708A6
:100DC000F3000800F300731CE62EE72EEB2E8312CF
:100DD00003130614EE2E831203130610F31CF12ED8
:100DE000F22EF42E8614F52E8610731DF82EF92E91
:100DF000FB2E0615FC2E0611F31DFF2E002F022FD1
:100E00008615032F86110800831203130C1C092F6B
:100E10000A2F1A2F2F088F002E088E000130FF0096
:100E20007F08FA0714307A06031D172F182F192F81
:100E3000FA010C107208FF0071088A00700E83001E
:100E4000FE0E7E0E0900F70000300A128A11762786
:100E50000A128A117703031D2E2F2F2F362F0C30E5
:100E60000A128A1176270A128A113C2F08300A12B8
:100E70008A1176270A128A110C30F600F60B3E2FE3
:100E80000800F70000300A128A1176270A128A1128
:100E90007703031D4C2F4D2F542F0E300A128A1149
:100EA00076270A128A115A2F0C300A128A117627D5
:100EB0000A128A110C30F600F60B5C2F0800F500C0
:100EC000831203139010101290127508F300F401AE
:100ED00073088E0074088F00831603130C1483129A
:100EE00003130C108B170B1710140800F500831256
:100EF0000313061275080A128A11E2260A128A11D1
:100F00008312031386165330F400F40B852F8312DB
:100F100003138612080000300A128A1176270A127B
:100F20008A1101300A128A1176270A128A111B309F
:100F3000F600F60B992F0800F300730883120317CD
:100F40008D00831603178C130C14831203170C08DF
:080F5000F400740808000134EC
:02400E00713F00
:00000001FF
